{
  "contractName": "Staking",
  "abi": [
    {
      "inputs": [
        {
          "internalType": "address",
          "name": "_stakingToken",
          "type": "address"
        },
        {
          "internalType": "address",
          "name": "_rewardToken",
          "type": "address"
        }
      ],
      "stateMutability": "nonpayable",
      "type": "constructor"
    },
    {
      "inputs": [
        {
          "internalType": "address",
          "name": "",
          "type": "address"
        }
      ],
      "name": "balanceOf",
      "outputs": [
        {
          "internalType": "uint256",
          "name": "",
          "type": "uint256"
        }
      ],
      "stateMutability": "view",
      "type": "function"
    },
    {
      "inputs": [],
      "name": "duration",
      "outputs": [
        {
          "internalType": "uint256",
          "name": "",
          "type": "uint256"
        }
      ],
      "stateMutability": "view",
      "type": "function"
    },
    {
      "inputs": [],
      "name": "finishAt",
      "outputs": [
        {
          "internalType": "uint256",
          "name": "",
          "type": "uint256"
        }
      ],
      "stateMutability": "view",
      "type": "function"
    },
    {
      "inputs": [],
      "name": "owner",
      "outputs": [
        {
          "internalType": "address",
          "name": "",
          "type": "address"
        }
      ],
      "stateMutability": "view",
      "type": "function"
    },
    {
      "inputs": [],
      "name": "rewardPerTokenStored",
      "outputs": [
        {
          "internalType": "uint256",
          "name": "",
          "type": "uint256"
        }
      ],
      "stateMutability": "view",
      "type": "function"
    },
    {
      "inputs": [],
      "name": "rewardRate",
      "outputs": [
        {
          "internalType": "uint256",
          "name": "",
          "type": "uint256"
        }
      ],
      "stateMutability": "view",
      "type": "function"
    },
    {
      "inputs": [
        {
          "internalType": "address",
          "name": "",
          "type": "address"
        }
      ],
      "name": "rewards",
      "outputs": [
        {
          "internalType": "uint256",
          "name": "",
          "type": "uint256"
        }
      ],
      "stateMutability": "view",
      "type": "function"
    },
    {
      "inputs": [],
      "name": "rewardsToken",
      "outputs": [
        {
          "internalType": "contract IERC20",
          "name": "",
          "type": "address"
        }
      ],
      "stateMutability": "view",
      "type": "function"
    },
    {
      "inputs": [],
      "name": "stakingToken",
      "outputs": [
        {
          "internalType": "contract IERC20",
          "name": "",
          "type": "address"
        }
      ],
      "stateMutability": "view",
      "type": "function"
    },
    {
      "inputs": [],
      "name": "totalSupply",
      "outputs": [
        {
          "internalType": "uint256",
          "name": "",
          "type": "uint256"
        }
      ],
      "stateMutability": "view",
      "type": "function"
    },
    {
      "inputs": [],
      "name": "updatedAt",
      "outputs": [
        {
          "internalType": "uint256",
          "name": "",
          "type": "uint256"
        }
      ],
      "stateMutability": "view",
      "type": "function"
    },
    {
      "inputs": [
        {
          "internalType": "address",
          "name": "",
          "type": "address"
        }
      ],
      "name": "userRewardPerTokenPaid",
      "outputs": [
        {
          "internalType": "uint256",
          "name": "",
          "type": "uint256"
        }
      ],
      "stateMutability": "view",
      "type": "function"
    },
    {
      "inputs": [],
      "name": "lastTimeRewardApplicable",
      "outputs": [
        {
          "internalType": "uint256",
          "name": "",
          "type": "uint256"
        }
      ],
      "stateMutability": "view",
      "type": "function"
    },
    {
      "inputs": [],
      "name": "rewardPerToken",
      "outputs": [
        {
          "internalType": "uint256",
          "name": "",
          "type": "uint256"
        }
      ],
      "stateMutability": "view",
      "type": "function"
    },
    {
      "inputs": [
        {
          "internalType": "uint256",
          "name": "_amount",
          "type": "uint256"
        }
      ],
      "name": "stake",
      "outputs": [],
      "stateMutability": "nonpayable",
      "type": "function"
    },
    {
      "inputs": [
        {
          "internalType": "uint256",
          "name": "_amount",
          "type": "uint256"
        }
      ],
      "name": "withdraw",
      "outputs": [],
      "stateMutability": "nonpayable",
      "type": "function"
    },
    {
      "inputs": [
        {
          "internalType": "address",
          "name": "_account",
          "type": "address"
        }
      ],
      "name": "earned",
      "outputs": [
        {
          "internalType": "uint256",
          "name": "",
          "type": "uint256"
        }
      ],
      "stateMutability": "view",
      "type": "function"
    },
    {
      "inputs": [],
      "name": "getReward",
      "outputs": [],
      "stateMutability": "nonpayable",
      "type": "function"
    },
    {
      "inputs": [
        {
          "internalType": "uint256",
          "name": "_duration",
          "type": "uint256"
        }
      ],
      "name": "setRewardsDuration",
      "outputs": [],
      "stateMutability": "nonpayable",
      "type": "function"
    },
    {
      "inputs": [
        {
          "internalType": "uint256",
          "name": "_amount",
          "type": "uint256"
        }
      ],
      "name": "notifyRewardAmount",
      "outputs": [],
      "stateMutability": "nonpayable",
      "type": "function"
    }
  ],
  "bytecode": "0x60c06040523480156200001157600080fd5b50604051620018ec380380620018ec833981810160405281019062000037919062000104565b336000806101000a81548173ffffffffffffffffffffffffffffffffffffffff021916908373ffffffffffffffffffffffffffffffffffffffff1602179055508173ffffffffffffffffffffffffffffffffffffffff1660808173ffffffffffffffffffffffffffffffffffffffff1660601b815250508073ffffffffffffffffffffffffffffffffffffffff1660a08173ffffffffffffffffffffffffffffffffffffffff1660601b81525050505062000193565b600081519050620000fe8162000179565b92915050565b600080604083850312156200011857600080fd5b60006200012885828601620000ed565b92505060206200013b85828601620000ed565b9150509250929050565b6000620001528262000159565b9050919050565b600073ffffffffffffffffffffffffffffffffffffffff82169050919050565b620001848162000145565b81146200019057600080fd5b50565b60805160601c60a05160601c611711620001db6000396000818161093e01528181610bcd01526110ae01526000818161067201528181610c9e0152610e4401526117116000f3fe608060405234801561001057600080fd5b506004361061012b5760003560e01c80637519ab50116100ad578063a694fc3a11610071578063a694fc3a14610322578063cc1a378f1461033e578063cd3daf9d1461035a578063d1af0c7d14610378578063df136d65146103965761012b565b80637519ab501461027a5780637b0a47ee1461029857806380faa57d146102b65780638b876347146102d45780638da5cb5b146103045761012b565b80633c6b16ab116100f45780633c6b16ab146101e85780633d18b9121461020457806367d3b4881461020e57806370a082311461022c57806372f702f31461025c5761012b565b80628cc262146101305780630700037d146101605780630fb5a6b41461019057806318160ddd146101ae5780632e1a7d4d146101cc575b600080fd5b61014a60048036038101906101459190611144565b6103b4565b604051610157919061148b565b60405180910390f35b61017a60048036038101906101759190611144565b6104b6565b604051610187919061148b565b60405180910390f35b6101986104ce565b6040516101a5919061148b565b60405180910390f35b6101b66104d4565b6040516101c3919061148b565b60405180910390f35b6101e660048036038101906101e19190611196565b6104da565b005b61020260048036038101906101fd9190611196565b610722565b005b61020c610a55565b005b610216610c7e565b604051610223919061148b565b60405180910390f35b61024660048036038101906102419190611144565b610c84565b604051610253919061148b565b60405180910390f35b610264610c9c565b60405161027191906113d0565b60405180910390f35b610282610cc0565b60405161028f919061148b565b60405180910390f35b6102a0610cc6565b6040516102ad919061148b565b60405180910390f35b6102be610ccc565b6040516102cb919061148b565b60405180910390f35b6102ee60048036038101906102e99190611144565b610cdf565b6040516102fb919061148b565b60405180910390f35b61030c610cf7565b6040516103199190611355565b60405180910390f35b61033c60048036038101906103379190611196565b610d1b565b005b61035860048036038101906103539190611196565b610f65565b005b610362611041565b60405161036f919061148b565b60405180910390f35b6103806110ac565b60405161038d91906113d0565b60405180910390f35b61039e6110d0565b6040516103ab919061148b565b60405180910390f35b6000600760008373ffffffffffffffffffffffffffffffffffffffff1673ffffffffffffffffffffffffffffffffffffffff16815260200190815260200160002054670de0b6b3a7640000600660008573ffffffffffffffffffffffffffffffffffffffff1673ffffffffffffffffffffffffffffffffffffffff16815260200190815260200160002054610447611041565b6104519190611598565b600960008673ffffffffffffffffffffffffffffffffffffffff1673ffffffffffffffffffffffffffffffffffffffff1681526020019081526020016000205461049b919061153e565b6104a5919061150d565b6104af91906114b7565b9050919050565b60076020528060005260406000206000915090505481565b60015481565b60085481565b336104e3611041565b6005819055506104f1610ccc565b600381905550600073ffffffffffffffffffffffffffffffffffffffff168173ffffffffffffffffffffffffffffffffffffffff16146105be57610534816103b4565b600760008373ffffffffffffffffffffffffffffffffffffffff1673ffffffffffffffffffffffffffffffffffffffff16815260200190815260200160002081905550600554600660008373ffffffffffffffffffffffffffffffffffffffff1673ffffffffffffffffffffffffffffffffffffffff168152602001908152602001600020819055505b60008211610601576040517f08c379a00000000000000000000000000000000000000000000000000000000081526004016105f89061144b565b60405180910390fd5b81600960003373ffffffffffffffffffffffffffffffffffffffff1673ffffffffffffffffffffffffffffffffffffffff16815260200190815260200160002060008282546106509190611598565b9250508190555081600860008282546106699190611598565b925050819055507f000000000000000000000000000000000000000000000000000000000000000073ffffffffffffffffffffffffffffffffffffffff1663a9059cbb33846040518363ffffffff1660e01b81526004016106cb9291906113a7565b602060405180830381600087803b1580156106e557600080fd5b505af11580156106f9573d6000803e3d6000fd5b505050506040513d601f19601f8201168201806040525081019061071d919061116d565b505050565b60008054906101000a900473ffffffffffffffffffffffffffffffffffffffff1673ffffffffffffffffffffffffffffffffffffffff163373ffffffffffffffffffffffffffffffffffffffff16146107b0576040517f08c379a00000000000000000000000000000000000000000000000000000000081526004016107a79061140b565b60405180910390fd5b60006107ba611041565b6005819055506107c8610ccc565b600381905550600073ffffffffffffffffffffffffffffffffffffffff168173ffffffffffffffffffffffffffffffffffffffff16146108955761080b816103b4565b600760008373ffffffffffffffffffffffffffffffffffffffff1673ffffffffffffffffffffffffffffffffffffffff16815260200190815260200160002081905550600554600660008373ffffffffffffffffffffffffffffffffffffffff1673ffffffffffffffffffffffffffffffffffffffff168152602001908152602001600020819055505b60025442106108b757600154826108ac919061150d565b6004819055506108f7565b6000600454426002546108ca9190611598565b6108d4919061153e565b905060015481846108e591906114b7565b6108ef919061150d565b600481905550505b60006004541161093c576040517f08c379a00000000000000000000000000000000000000000000000000000000081526004016109339061146b565b60405180910390fd5b7f000000000000000000000000000000000000000000000000000000000000000073ffffffffffffffffffffffffffffffffffffffff166370a08231306040518263ffffffff1660e01b81526004016109959190611355565b60206040518083038186803b1580156109ad57600080fd5b505afa1580156109c1573d6000803e3d6000fd5b505050506040513d601f19601f820116820180604052508101906109e591906111bf565b6001546004546109f5919061153e565b1115610a36576040517f08c379a0000000000000000000000000000000000000000000000000000000008152600401610a2d9061142b565b60405180910390fd5b60015442610a4491906114b7565b600281905550426003819055505050565b33610a5e611041565b600581905550610a6c610ccc565b600381905550600073ffffffffffffffffffffffffffffffffffffffff168173ffffffffffffffffffffffffffffffffffffffff1614610b3957610aaf816103b4565b600760008373ffffffffffffffffffffffffffffffffffffffff1673ffffffffffffffffffffffffffffffffffffffff16815260200190815260200160002081905550600554600660008373ffffffffffffffffffffffffffffffffffffffff1673ffffffffffffffffffffffffffffffffffffffff168152602001908152602001600020819055505b6000600760003373ffffffffffffffffffffffffffffffffffffffff1673ffffffffffffffffffffffffffffffffffffffff1681526020019081526020016000205490506000811115610c7a576000600760003373ffffffffffffffffffffffffffffffffffffffff1673ffffffffffffffffffffffffffffffffffffffff168152602001908152602001600020819055507f000000000000000000000000000000000000000000000000000000000000000073ffffffffffffffffffffffffffffffffffffffff1663a9059cbb33836040518363ffffffff1660e01b8152600401610c269291906113a7565b602060405180830381600087803b158015610c4057600080fd5b505af1158015610c54573d6000803e3d6000fd5b505050506040513d601f19601f82011682018060405250810190610c78919061116d565b505b5050565b60025481565b60096020528060005260406000206000915090505481565b7f000000000000000000000000000000000000000000000000000000000000000081565b60035481565b60045481565b6000610cda600254426110d6565b905090565b60066020528060005260406000206000915090505481565b60008054906101000a900473ffffffffffffffffffffffffffffffffffffffff1681565b33610d24611041565b600581905550610d32610ccc565b600381905550600073ffffffffffffffffffffffffffffffffffffffff168173ffffffffffffffffffffffffffffffffffffffff1614610dff57610d75816103b4565b600760008373ffffffffffffffffffffffffffffffffffffffff1673ffffffffffffffffffffffffffffffffffffffff16815260200190815260200160002081905550600554600660008373ffffffffffffffffffffffffffffffffffffffff1673ffffffffffffffffffffffffffffffffffffffff168152602001908152602001600020819055505b60008211610e42576040517f08c379a0000000000000000000000000000000000000000000000000000000008152600401610e399061144b565b60405180910390fd5b7f000000000000000000000000000000000000000000000000000000000000000073ffffffffffffffffffffffffffffffffffffffff166323b872dd3330856040518463ffffffff1660e01b8152600401610e9f93929190611370565b602060405180830381600087803b158015610eb957600080fd5b505af1158015610ecd573d6000803e3d6000fd5b505050506040513d601f19601f82011682018060405250810190610ef1919061116d565b5081600960003373ffffffffffffffffffffffffffffffffffffffff1673ffffffffffffffffffffffffffffffffffffffff1681526020019081526020016000206000828254610f4191906114b7565b925050819055508160086000828254610f5a91906114b7565b925050819055505050565b60008054906101000a900473ffffffffffffffffffffffffffffffffffffffff1673ffffffffffffffffffffffffffffffffffffffff163373ffffffffffffffffffffffffffffffffffffffff1614610ff3576040517f08c379a0000000000000000000000000000000000000000000000000000000008152600401610fea9061140b565b60405180910390fd5b4260025410611037576040517f08c379a000000000000000000000000000000000000000000000000000000000815260040161102e906113eb565b60405180910390fd5b8060018190555050565b60008060085414156110575760055490506110a9565b600854670de0b6b3a764000060035461106e610ccc565b6110789190611598565b600454611085919061153e565b61108f919061153e565b611099919061150d565b6005546110a691906114b7565b90505b90565b7f000000000000000000000000000000000000000000000000000000000000000081565b60055481565b6000818311156110e657816110e8565b825b905092915050565b6000813590506110ff81611696565b92915050565b600081519050611114816116ad565b92915050565b600081359050611129816116c4565b92915050565b60008151905061113e816116c4565b92915050565b60006020828403121561115657600080fd5b6000611164848285016110f0565b91505092915050565b60006020828403121561117f57600080fd5b600061118d84828501611105565b91505092915050565b6000602082840312156111a857600080fd5b60006111b68482850161111a565b91505092915050565b6000602082840312156111d157600080fd5b60006111df8482850161112f565b91505092915050565b6111f1816115cc565b82525050565b61120081611614565b82525050565b6000611213601c836114a6565b91507f726577617264206475726174696f6e206e6f742066696e6973686564000000006000830152602082019050919050565b6000611253600e836114a6565b91507f6e6f7420617574686f72697a65640000000000000000000000000000000000006000830152602082019050919050565b60006112936017836114a6565b91507f72657761726420616d6f756e74203e2062616c616e63650000000000000000006000830152602082019050919050565b60006112d3600a836114a6565b91507f616d6f756e74203d2030000000000000000000000000000000000000000000006000830152602082019050919050565b6000611313600f836114a6565b91507f7265776172642072617465203d203000000000000000000000000000000000006000830152602082019050919050565b61134f8161160a565b82525050565b600060208201905061136a60008301846111e8565b92915050565b600060608201905061138560008301866111e8565b61139260208301856111e8565b61139f6040830184611346565b949350505050565b60006040820190506113bc60008301856111e8565b6113c96020830184611346565b9392505050565b60006020820190506113e560008301846111f7565b92915050565b6000602082019050818103600083015261140481611206565b9050919050565b6000602082019050818103600083015261142481611246565b9050919050565b6000602082019050818103600083015261144481611286565b9050919050565b60006020820190508181036000830152611464816112c6565b9050919050565b6000602082019050818103600083015261148481611306565b9050919050565b60006020820190506114a06000830184611346565b92915050565b600082825260208201905092915050565b60006114c28261160a565b91506114cd8361160a565b9250827fffffffffffffffffffffffffffffffffffffffffffffffffffffffffffffffff0382111561150257611501611638565b5b828201905092915050565b60006115188261160a565b91506115238361160a565b92508261153357611532611667565b5b828204905092915050565b60006115498261160a565b91506115548361160a565b9250817fffffffffffffffffffffffffffffffffffffffffffffffffffffffffffffffff048311821515161561158d5761158c611638565b5b828202905092915050565b60006115a38261160a565b91506115ae8361160a565b9250828210156115c1576115c0611638565b5b828203905092915050565b60006115d7826115ea565b9050919050565b60008115159050919050565b600073ffffffffffffffffffffffffffffffffffffffff82169050919050565b6000819050919050565b600061161f82611626565b9050919050565b6000611631826115ea565b9050919050565b7f4e487b7100000000000000000000000000000000000000000000000000000000600052601160045260246000fd5b7f4e487b7100000000000000000000000000000000000000000000000000000000600052601260045260246000fd5b61169f816115cc565b81146116aa57600080fd5b50565b6116b6816115de565b81146116c157600080fd5b50565b6116cd8161160a565b81146116d857600080fd5b5056fea264697066735822122074f0bddf37595222b49d54222e0d238734de63b5b96310f0c9c710d1770da19164736f6c63430008000033",
  "immutableReferences": {
    "37": [
      {
        "length": 32,
        "start": 1650
      },
      {
        "length": 32,
        "start": 3230
      },
      {
        "length": 32,
        "start": 3652
      }
    ],
    "40": [
      {
        "length": 32,
        "start": 2366
      },
      {
        "length": 32,
        "start": 3021
      },
      {
        "length": 32,
        "start": 4270
      }
    ]
  },
  "source": "// SPDX-License-Identifier: MIT\r\npragma solidity ^0.8;\r\n\r\ncontract Staking {\r\n    IERC20 public immutable stakingToken;\r\n    IERC20 public immutable rewardsToken;\r\n\r\n    address public owner;\r\n\r\n    // Duration of rewards to be paid out (in seconds)\r\n    uint public duration;\r\n    // Timestamp of when the rewards finish\r\n    uint public finishAt;\r\n    // Minimum of last updated time and reward finish time\r\n    uint public updatedAt;\r\n    // Reward to be paid out per second\r\n    uint public rewardRate;\r\n    // Sum of (reward rate * dt * 1e18 / total supply)\r\n    uint public rewardPerTokenStored;\r\n    // User address => rewardPerTokenStored\r\n    mapping(address => uint) public userRewardPerTokenPaid;\r\n    // User address => rewards to be claimed\r\n    mapping(address => uint) public rewards;\r\n\r\n    // Total staked\r\n    uint public totalSupply;\r\n    // User address => staked amount\r\n    mapping(address => uint) public balanceOf;\r\n\r\n    constructor(address _stakingToken, address _rewardToken) {\r\n        owner = msg.sender;\r\n        stakingToken = IERC20(_stakingToken);\r\n        rewardsToken = IERC20(_rewardToken);\r\n    }\r\n\r\n    modifier onlyOwner() {\r\n        require(msg.sender == owner, \"not authorized\");\r\n        _;\r\n    }\r\n\r\n    modifier updateReward(address _account) {\r\n        rewardPerTokenStored = rewardPerToken();\r\n        updatedAt = lastTimeRewardApplicable();\r\n\r\n        if (_account != address(0)) {\r\n            rewards[_account] = earned(_account);\r\n            userRewardPerTokenPaid[_account] = rewardPerTokenStored;\r\n        }\r\n\r\n        _;\r\n    }\r\n\r\n    function lastTimeRewardApplicable() public view returns (uint) {\r\n        return _min(finishAt, block.timestamp);\r\n    }\r\n\r\n    function rewardPerToken() public view returns (uint) {\r\n        if (totalSupply == 0) {\r\n            return rewardPerTokenStored;\r\n        }\r\n\r\n        return\r\n            rewardPerTokenStored +\r\n            (rewardRate * (lastTimeRewardApplicable() - updatedAt) * 1e18) /\r\n            totalSupply;\r\n    }\r\n\r\n    function stake(uint _amount) external updateReward(msg.sender) {\r\n        require(_amount > 0, \"amount = 0\");\r\n        stakingToken.transferFrom(msg.sender, address(this), _amount);\r\n        balanceOf[msg.sender] += _amount;\r\n        totalSupply += _amount;\r\n    }\r\n\r\n    function withdraw(uint _amount) external updateReward(msg.sender) {\r\n        require(_amount > 0, \"amount = 0\");\r\n        balanceOf[msg.sender] -= _amount;\r\n        totalSupply -= _amount;\r\n        stakingToken.transfer(msg.sender, _amount);\r\n    }\r\n\r\n    function earned(address _account) public view returns (uint) {\r\n        return\r\n            ((balanceOf[_account] *\r\n                (rewardPerToken() - userRewardPerTokenPaid[_account])) / 1e18) +\r\n            rewards[_account];\r\n    }\r\n\r\n    function getReward() external updateReward(msg.sender) {\r\n        uint reward = rewards[msg.sender];\r\n        if (reward > 0) {\r\n            rewards[msg.sender] = 0;\r\n            rewardsToken.transfer(msg.sender, reward);\r\n        }\r\n    }\r\n\r\n    function setRewardsDuration(uint _duration) external onlyOwner {\r\n        require(finishAt < block.timestamp, \"reward duration not finished\");\r\n        duration = _duration;\r\n    }\r\n\r\n    function notifyRewardAmount(uint _amount)\r\n        external\r\n        onlyOwner\r\n        updateReward(address(0))\r\n    {\r\n        if (block.timestamp >= finishAt) {\r\n            rewardRate = _amount / duration;\r\n        } else {\r\n            uint remainingRewards = (finishAt - block.timestamp) * rewardRate;\r\n            rewardRate = (_amount + remainingRewards) / duration;\r\n        }\r\n\r\n        require(rewardRate > 0, \"reward rate = 0\");\r\n        require(\r\n            rewardRate * duration <= rewardsToken.balanceOf(address(this)),\r\n            \"reward amount > balance\"\r\n        );\r\n\r\n        finishAt = block.timestamp + duration;\r\n        updatedAt = block.timestamp;\r\n    }\r\n\r\n    function _min(uint x, uint y) private pure returns (uint) {\r\n        return x <= y ? x : y;\r\n    }\r\n}\r\n\r\ninterface IERC20 {\r\n    function totalSupply() external view returns (uint);\r\n\r\n    function balanceOf(address account) external view returns (uint);\r\n\r\n    function transfer(address recipient, uint amount) external returns (bool);\r\n\r\n    function allowance(address owner, address spender) external view returns (uint);\r\n\r\n    function approve(address spender, uint amount) external returns (bool);\r\n\r\n    function transferFrom(\r\n        address sender,\r\n        address recipient,\r\n        uint amount\r\n    ) external returns (bool);\r\n\r\n    event Transfer(address indexed from, address indexed to, uint value);\r\n    event Approval(address indexed owner, address indexed spender, uint value);\r\n}\r\n",
  "sourcePath": "D:/_GITHUB_DEMO/staking/contracts/Staking.sol",
  "compiler": {
    "name": "solc",
    "version": "0.8.0+commit.c7dfd78e.Emscripten.clang"
  },
  "schemaVersion": "3.3.4",
  "updatedAt": "2022-07-11T14:23:23.746Z",
  "devdoc": {
    "kind": "dev",
    "methods": {},
    "version": 1
  },
  "userdoc": {
    "kind": "user",
    "methods": {},
    "version": 1
  }
}